{
  "contractName": "Counter",
  "abi": [
    {
      "inputs": [],
      "name": "number",
      "outputs": [
        {
          "internalType": "uint256",
          "name": "",
          "type": "uint256"
        }
      ],
      "stateMutability": "view",
      "type": "function"
    },
    {
      "inputs": [
        {
          "internalType": "uint256",
          "name": "newNumber",
          "type": "uint256"
        }
      ],
      "name": "setNumber",
      "outputs": [],
      "stateMutability": "nonpayable",
      "type": "function"
    },
    {
      "inputs": [],
      "name": "increment",
      "outputs": [],
      "stateMutability": "nonpayable",
      "type": "function"
    },
    {
      "inputs": [],
      "name": "getNumber",
      "outputs": [
        {
          "internalType": "uint256",
          "name": "",
          "type": "uint256"
        }
      ],
      "stateMutability": "view",
      "type": "function"
    },
    {
      "inputs": [],
      "name": "resetCounter",
      "outputs": [],
      "stateMutability": "nonpayable",
      "type": "function"
    }
  ],
  "bytecode": "0x608060405234801561000f575f80fd5b5061022f8061001d5f395ff3fe608060405234801561000f575f80fd5b5060043610610055575f3560e01c80633fb5c1cb146100595780638381f58a14610075578063d09de08a14610093578063dbdf7fce1461009d578063f2c9ecd8146100a7575b5f80fd5b610073600480360381019061006e9190610132565b6100c5565b005b61007d6100ce565b60405161008a919061016c565b60405180910390f35b61009b6100d3565b005b6100a56100eb565b005b6100af6100f3565b6040516100bc919061016c565b60405180910390f35b805f8190555050565b5f5481565b5f808154809291906100e4906101b2565b9190505550565b5f8081905550565b5f8054905090565b5f80fd5b5f819050919050565b610111816100ff565b811461011b575f80fd5b50565b5f8135905061012c81610108565b92915050565b5f60208284031215610147576101466100fb565b5b5f6101548482850161011e565b91505092915050565b610166816100ff565b82525050565b5f60208201905061017f5f83018461015d565b92915050565b7f4e487b71000000000000000000000000000000000000000000000000000000005f52601160045260245ffd5b5f6101bc826100ff565b91507fffffffffffffffffffffffffffffffffffffffffffffffffffffffffffffffff82036101ee576101ed610185565b5b60018201905091905056fea26469706673582212203e29974da718f2b543a9fb5948865bd2c4136dbf793a45a4058e146a98adce6864736f6c63430008150033",
  "immutableReferences": {},
  "source": "// SPDX-License-Identifier: UNLICENSED\r\npragma solidity ^0.8.13;\r\n\r\ncontract Counter {\r\n    uint256 public number;\r\n\r\n    function setNumber(uint256 newNumber) public {\r\n        number = newNumber;\r\n    }\r\n\r\n    function increment() public {\r\n        number++;\r\n    }\r\n\r\n    function getNumber() public view returns(uint256) {\r\n        return number;\r\n    }\r\n\r\n    function resetCounter() public {\r\n        number = 0;\r\n    }\r\n}\r\n",
  "sourcePath": "/Users/lucifer/Downloads/web3_match_12/contracts/Counter.sol",
  "compiler": {
    "name": "solc",
    "version": "0.8.21+commit.d9974bed.Emscripten.clang"
  },
  "schemaVersion": "3.4.16",
  "updatedAt": "2024-04-14T04:37:38.413Z",
  "devdoc": {
    "kind": "dev",
    "methods": {},
    "version": 1
  },
  "userdoc": {
    "kind": "user",
    "methods": {},
    "version": 1
  }
}