{
  "contractName": "MyGiftTreasure",
  "abi": [
    {
      "inputs": [],
      "name": "techAddr",
      "outputs": [
        {
          "internalType": "address",
          "name": "",
          "type": "address"
        }
      ],
      "stateMutability": "view",
      "type": "function"
    },
    {
      "inputs": [],
      "name": "totalGiftTruesure",
      "outputs": [
        {
          "internalType": "uint256",
          "name": "",
          "type": "uint256"
        }
      ],
      "stateMutability": "view",
      "type": "function"
    }
  ],
  "bytecode": "0x608060405234801561000f575f80fd5b5061015c8061001d5f395ff3fe608060405234801561000f575f80fd5b5060043610610034575f3560e01c8063aae0045414610038578063b225f1fe14610056575b5f80fd5b610040610074565b60405161004d91906100b5565b60405180910390f35b61005e61007a565b60405161006b919061010d565b60405180910390f35b60015481565b5f8054906101000a900473ffffffffffffffffffffffffffffffffffffffff1681565b5f819050919050565b6100af8161009d565b82525050565b5f6020820190506100c85f8301846100a6565b92915050565b5f73ffffffffffffffffffffffffffffffffffffffff82169050919050565b5f6100f7826100ce565b9050919050565b610107816100ed565b82525050565b5f6020820190506101205f8301846100fe565b9291505056fea26469706673582212202a0f73612fce2aee09639e526d5f3fb1c92e0f1a9317be5a402c46764962a56a64736f6c63430008150033",
  "immutableReferences": {},
  "source": "contract MyGiftTreasure {\r\n   \r\n    //项目方地址\r\n    address public techAddr;  \r\n\r\n    //合约维护总财富\r\n    uint public totalGiftTruesure;\r\n\r\n    // 正常彩礼对象结构\r\n    struct GiftTreasure{\r\n        // 男方\r\n        address manAddr;\r\n        // 女方\r\n        address feamealAddr;\r\n        uint totalGiftTreasure;\r\n        uint periodTime;   //分发总时间\r\n        uint8 isStateOk; //分发状态是否正常。0表示不正常，1表示正常。\r\n\r\n\r\n    }\r\n\r\n    // 需要仲裁对象结构\r\n    struct VoteTreasure{\r\n        // 男方\r\n        address manAddr;\r\n        // 女方\r\n        address feamealAddr;\r\n        address judgeAddr;  //判定者\r\n        uint totalGiftTreasure;\r\n\r\n        uint judgerNum; //判定成员\r\n\r\n        \r\n    }\r\n\r\n\r\n\r\n\r\n\r\n\r\n\r\n\r\n}",
  "sourcePath": "/Users/lucifer/Downloads/web3_match_12/contracts/MyGiftTreasure.sol",
  "compiler": {
    "name": "solc",
    "version": "0.8.21+commit.d9974bed.Emscripten.clang"
  },
  "schemaVersion": "3.4.16",
  "updatedAt": "2024-04-14T04:37:38.414Z",
  "devdoc": {
    "kind": "dev",
    "methods": {},
    "version": 1
  },
  "userdoc": {
    "kind": "user",
    "methods": {},
    "version": 1
  }
}