{
  "contractName": "MyTruesure",
  "abi": [
    {
      "inputs": [
        {
          "internalType": "address",
          "name": "_techAddr",
          "type": "address"
        }
      ],
      "stateMutability": "nonpayable",
      "type": "constructor"
    },
    {
      "anonymous": false,
      "inputs": [
        {
          "indexed": false,
          "internalType": "uint256",
          "name": "amount",
          "type": "uint256"
        },
        {
          "indexed": false,
          "internalType": "uint256",
          "name": "when",
          "type": "uint256"
        }
      ],
      "name": "Withdrawal",
      "type": "event"
    },
    {
      "inputs": [
        {
          "internalType": "uint256",
          "name": "",
          "type": "uint256"
        }
      ],
      "name": "allTruesures",
      "outputs": [
        {
          "internalType": "address",
          "name": "ownerAddr",
          "type": "address"
        },
        {
          "internalType": "uint256",
          "name": "ownerTreature",
          "type": "uint256"
        },
        {
          "internalType": "uint256",
          "name": "startTime",
          "type": "uint256"
        },
        {
          "internalType": "uint256",
          "name": "periodTime",
          "type": "uint256"
        },
        {
          "internalType": "uint8",
          "name": "islive",
          "type": "uint8"
        }
      ],
      "stateMutability": "view",
      "type": "function"
    },
    {
      "inputs": [],
      "name": "techAddr",
      "outputs": [
        {
          "internalType": "address",
          "name": "",
          "type": "address"
        }
      ],
      "stateMutability": "view",
      "type": "function"
    },
    {
      "inputs": [],
      "name": "totalTruesure",
      "outputs": [
        {
          "internalType": "uint256",
          "name": "",
          "type": "uint256"
        }
      ],
      "stateMutability": "view",
      "type": "function"
    },
    {
      "inputs": [
        {
          "internalType": "address",
          "name": "sucessorAddr",
          "type": "address"
        },
        {
          "internalType": "uint256",
          "name": "startTime",
          "type": "uint256"
        },
        {
          "internalType": "uint256",
          "name": "peroidTime",
          "type": "uint256"
        }
      ],
      "name": "createSuccessActivity",
      "outputs": [],
      "stateMutability": "payable",
      "type": "function"
    },
    {
      "inputs": [],
      "name": "checkAllSucessActivity",
      "outputs": [],
      "stateMutability": "nonpayable",
      "type": "function"
    },
    {
      "inputs": [],
      "name": "withDrawBack",
      "outputs": [],
      "stateMutability": "nonpayable",
      "type": "function"
    },
    {
      "inputs": [
        {
          "internalType": "uint256",
          "name": "peroidTime",
          "type": "uint256"
        }
      ],
      "name": "ownerDelay",
      "outputs": [],
      "stateMutability": "nonpayable",
      "type": "function"
    },
    {
      "inputs": [],
      "name": "getBalance",
      "outputs": [
        {
          "internalType": "uint256",
          "name": "",
          "type": "uint256"
        }
      ],
      "stateMutability": "view",
      "type": "function"
    }
  ],
  "bytecode": "0x608060405234801562000010575f80fd5b5060405162001061380380620010618339818101604052810190620000369190620000e1565b805f806101000a81548173ffffffffffffffffffffffffffffffffffffffff021916908373ffffffffffffffffffffffffffffffffffffffff1602179055505062000111565b5f80fd5b5f73ffffffffffffffffffffffffffffffffffffffff82169050919050565b5f620000ab8262000080565b9050919050565b620000bd816200009f565b8114620000c8575f80fd5b50565b5f81519050620000db81620000b2565b92915050565b5f60208284031215620000f957620000f86200007c565b5b5f6200010884828501620000cb565b91505092915050565b610f42806200011f5f395ff3fe60806040526004361061007a575f3560e01c8063539545741161004d578063539545741461012e5780635cd464ed14610144578063b225f1fe1461016c578063e3aae837146101965761007a565b806302e99b0d1461007e57806312065fe0146100be578063442ea197146100e85780634992fe0014610104575b5f80fd5b348015610089575f80fd5b506100a4600480360381019061009f9190610b12565b6101ac565b6040516100b5959493929190610ba6565b60405180910390f35b3480156100c9575f80fd5b506100d2610218565b6040516100df9190610bf7565b60405180910390f35b61010260048036038101906100fd9190610c3a565b61021f565b005b34801561010f575f80fd5b5061011861050d565b6040516101259190610bf7565b60405180910390f35b348015610139575f80fd5b50610142610513565b005b34801561014f575f80fd5b5061016a60048036038101906101659190610b12565b6106dc565b005b348015610177575f80fd5b50610180610850565b60405161018d9190610c8a565b60405180910390f35b3480156101a1575f80fd5b506101aa610873565b005b600281815481106101bb575f80fd5b905f5260205f2090600602015f91509050805f015f9054906101000a900473ffffffffffffffffffffffffffffffffffffffff1690806002015490806003015490806004015490806005015f9054906101000a900460ff16905085565b5f47905090565b5f151561022b84610a61565b15151461026d576040517f08c379a000000000000000000000000000000000000000000000000000000000815260040161026490610cfd565b60405180910390fd5b6201518081116102b2576040517f08c379a00000000000000000000000000000000000000000000000000000000081526004016102a990610d8b565b60405180910390fd5b5f34116102f4576040517f08c379a00000000000000000000000000000000000000000000000000000000081526004016102eb90610df3565b60405180910390fd5b3073ffffffffffffffffffffffffffffffffffffffff166108fc3490811502906040515f60405180830381858888f19350505050158015610337573d5f803e3d5ffd5b505f6003905033815f015f6101000a81548173ffffffffffffffffffffffffffffffffffffffff021916908373ffffffffffffffffffffffffffffffffffffffff1602179055503481600201819055508281600301819055508181600401819055506001816005015f6101000a81548160ff021916908360ff1602179055508060010184908060018154018082558091505060019003905f5260205f20015f9091909190916101000a81548173ffffffffffffffffffffffffffffffffffffffff021916908373ffffffffffffffffffffffffffffffffffffffff160217905550600281908060018154018082558091505060019003905f5260205f2090600602015f909190919091505f82015f9054906101000a900473ffffffffffffffffffffffffffffffffffffffff16815f015f6101000a81548173ffffffffffffffffffffffffffffffffffffffff021916908373ffffffffffffffffffffffffffffffffffffffff16021790555060018201816001019080546104ba929190610a72565b50600282015481600201556003820154816003015560048201548160040155600582015f9054906101000a900460ff16816005015f6101000a81548160ff021916908360ff160217905550505050505050565b60015481565b5f3390505f805f90505f5b60028054905081101561064b578373ffffffffffffffffffffffffffffffffffffffff166002828154811061055657610555610e11565b5b905f5260205f2090600602015f015f9054906101000a900473ffffffffffffffffffffffffffffffffffffffff1673ffffffffffffffffffffffffffffffffffffffff160361063857600281815481106105b3576105b2610e11565b5b905f5260205f20906006020160020154836105ce9190610e6b565b92505f600282815481106105e5576105e4610e11565b5b905f5260205f209060060201600201819055505f6002828154811061060d5761060c610e11565b5b905f5260205f2090600602016005015f6101000a81548160ff021916908360ff160217905550600191505b808061064390610e9e565b91505061051e565b50600181036106d7577fbf2ed60bd5b5965d685680c01195c9514e4382e28e3a5a2d2d5244bf59411b938242604051610685929190610ee5565b60405180910390a15f8390508073ffffffffffffffffffffffffffffffffffffffff166108fc8490811502906040515f60405180830381858888f193505050501580156106d4573d5f803e3d5ffd5b50505b505050565b620151808111610721576040517f08c379a000000000000000000000000000000000000000000000000000000000815260040161071890610d8b565b60405180910390fd5b5f3390505f5b60028054905081101561084b578173ffffffffffffffffffffffffffffffffffffffff166002828154811061075f5761075e610e11565b5b905f5260205f2090600602015f015f9054906101000a900473ffffffffffffffffffffffffffffffffffffffff1673ffffffffffffffffffffffffffffffffffffffff161480156107e257506001600282815481106107c1576107c0610e11565b5b905f5260205f2090600602016005015f9054906101000a900460ff1660ff16145b156108385742600282815481106107fc576107fb610e11565b5b905f5260205f20906006020160030181905550826002828154811061082457610823610e11565b5b905f5260205f209060060201600401819055505b808061084390610e9e565b915050610727565b505050565b5f8054906101000a900473ffffffffffffffffffffffffffffffffffffffff1681565b5f5b600280549050811015610a5e5760016002828154811061089857610897610e11565b5b905f5260205f2090600602016005015f9054906101000a900460ff1660ff1603610a4b575f4290505f600283815481106108d5576108d4610e11565b5b905f5260205f20906006020160040154600284815481106108f9576108f8610e11565b5b905f5260205f209060060201600301546109139190610e6b565b9050808210610a48575f6002848154811061093157610930610e11565b5b905f5260205f2090600602016001015f8154811061095257610951610e11565b5b905f5260205f20015f9054906101000a900473ffffffffffffffffffffffffffffffffffffffff1690508073ffffffffffffffffffffffffffffffffffffffff166108fc600286815481106109aa576109a9610e11565b5b905f5260205f2090600602016002015490811502906040515f60405180830381858888f193505050501580156109e2573d5f803e3d5ffd5b505f600285815481106109f8576109f7610e11565b5b905f5260205f209060060201600201819055505f60028581548110610a2057610a1f610e11565b5b905f5260205f2090600602016005015f6101000a81548160ff021916908360ff160217905550505b50505b8080610a5690610e9e565b915050610875565b50565b5f80823b90505f8111915050919050565b828054828255905f5260205f20908101928215610aaf575f5260205f209182015b82811115610aae578254825591600101919060010190610a93565b5b509050610abc9190610ac0565b5090565b5b80821115610ad7575f815f905550600101610ac1565b5090565b5f80fd5b5f819050919050565b610af181610adf565b8114610afb575f80fd5b50565b5f81359050610b0c81610ae8565b92915050565b5f60208284031215610b2757610b26610adb565b5b5f610b3484828501610afe565b91505092915050565b5f73ffffffffffffffffffffffffffffffffffffffff82169050919050565b5f610b6682610b3d565b9050919050565b610b7681610b5c565b82525050565b610b8581610adf565b82525050565b5f60ff82169050919050565b610ba081610b8b565b82525050565b5f60a082019050610bb95f830188610b6d565b610bc66020830187610b7c565b610bd36040830186610b7c565b610be06060830185610b7c565b610bed6080830184610b97565b9695505050505050565b5f602082019050610c0a5f830184610b7c565b92915050565b610c1981610b5c565b8114610c23575f80fd5b50565b5f81359050610c3481610c10565b92915050565b5f805f60608486031215610c5157610c50610adb565b5b5f610c5e86828701610c26565b9350506020610c6f86828701610afe565b9250506040610c8086828701610afe565b9150509250925092565b5f602082019050610c9d5f830184610b6d565b92915050565b5f82825260208201905092915050565b7f4e6f742061206e6f726d616c20757365720000000000000000000000000000005f82015250565b5f610ce7601183610ca3565b9150610cf282610cb3565b602082019050919050565b5f6020820190508181035f830152610d1481610cdb565b9050919050565b7f7065726f696454696d65206964206d75636820736d616c6c2c6e6565642062695f8201527f67676572206f6e65206461790000000000000000000000000000000000000000602082015250565b5f610d75602c83610ca3565b9150610d8082610d1b565b604082019050919050565b5f6020820190508181035f830152610da281610d69565b9050919050565b7f4574682062616c616e63652069732030000000000000000000000000000000005f82015250565b5f610ddd601083610ca3565b9150610de882610da9565b602082019050919050565b5f6020820190508181035f830152610e0a81610dd1565b9050919050565b7f4e487b71000000000000000000000000000000000000000000000000000000005f52603260045260245ffd5b7f4e487b71000000000000000000000000000000000000000000000000000000005f52601160045260245ffd5b5f610e7582610adf565b9150610e8083610adf565b9250828201905080821115610e9857610e97610e3e565b5b92915050565b5f610ea882610adf565b91507fffffffffffffffffffffffffffffffffffffffffffffffffffffffffffffffff8203610eda57610ed9610e3e565b5b600182019050919050565b5f604082019050610ef85f830185610b7c565b610f056020830184610b7c565b939250505056fea2646970667358221220eee026bafacfabdf11d4737f611246b4d6121d3a2cb2b3cf61022eaef273a21464736f6c63430008150033",
  "immutableReferences": {},
  "source": "pragma solidity ^0.8.20;\r\nimport \"../node_modules/@openzeppelin/contracts/token/ERC20/ERC20.sol\"; \r\n// import \"openzeppelin-solidity/contracts/token/ERC20/utils/SafeERC20.sol\"; \r\n// import './ButtToken.sol';\r\n\r\nlibrary SafeMath {\r\n\r\n    /**\r\n     * @dev Returns the addition of two unsigned integers, reverting on\r\n     * overflow.\r\n     *\r\n     * Counterpart to Solidity's `+` operator.\r\n     *\r\n     * Requirements:\r\n     *\r\n     * - Addition cannot overflow.\r\n     */\r\n    function add(uint256 a, uint256 b) internal pure returns (uint256) {\r\n        uint256 c = a + b;\r\n        require(c >= a, \"SafeMath: addition overflow\");\r\n        return c;\r\n    }\r\n\r\n    \r\n\r\n    /**\r\n     * @dev Returns the subtraction of two unsigned integers, reverting on\r\n     * overflow (when the result is negative).\r\n     *\r\n     * Counterpart to Solidity's `-` operator.\r\n     *\r\n     * Requirements:\r\n     *\r\n     * - Subtraction cannot overflow.\r\n     */\r\n    function sub(uint256 a, uint256 b) internal pure returns (uint256) {\r\n        return sub(a, b, \"SafeMath: subtraction overflow\");\r\n    }\r\n\r\n    /**\r\n     * @dev Returns the subtraction of two unsigned integers, reverting with custom message on\r\n     * overflow (when the result is negative).\r\n     *\r\n     * Counterpart to Solidity's `-` operator.\r\n     *\r\n     * Requirements:\r\n     *\r\n     * - Subtraction cannot overflow.\r\n     */\r\n    function sub(uint256 a, uint256 b, string memory errorMessage) internal pure returns (uint256) {\r\n        require(b <= a, errorMessage);\r\n        uint256 c = a - b;\r\n\r\n        return c;\r\n    }\r\n\r\n    /**\r\n     * @dev Returns the multiplication of two unsigned integers, reverting on\r\n     * overflow.\r\n     *\r\n     * Counterpart to Solidity's `*` operator.\r\n     *\r\n     * Requirements:\r\n     *\r\n     * - Multiplication cannot overflow.\r\n     */\r\n    function mul(uint256 a, uint256 b) internal pure returns (uint256) {\r\n        // Gas optimization: this is cheaper than requiring 'a' not being zero, but the\r\n        // benefit is lost if 'b' is also tested.\r\n        // See: https://github.com/OpenZeppelin/openzeppelin-contracts/pull/522\r\n        if (a == 0) {\r\n            return 0;\r\n        }\r\n\r\n        uint256 c = a * b;\r\n        require(c / a == b, \"SafeMath: multiplication overflow\");\r\n\r\n        return c;\r\n    }\r\n\r\n    /**\r\n     * @dev Returns the integer division of two unsigned integers. Reverts on\r\n     * division by zero. The result is rounded towards zero.\r\n     *\r\n     * Counterpart to Solidity's `/` operator. Note: this function uses a\r\n     * `revert` opcode (which leaves remaining gas untouched) while Solidity\r\n     * uses an invalid opcode to revert (consuming all remaining gas).\r\n     *\r\n     * Requirements:\r\n     *\r\n     * - The divisor cannot be zero.\r\n     */\r\n    function div(uint256 a, uint256 b) internal pure returns (uint256) {\r\n        return div(a, b, \"SafeMath: division by zero\");\r\n    }\r\n\r\n    /**\r\n     * @dev Returns the integer division of two unsigned integers. Reverts with custom message on\r\n     * division by zero. The result is rounded towards zero.\r\n     *\r\n     * Counterpart to Solidity's `/` operator. Note: this function uses a\r\n     * `revert` opcode (which leaves remaining gas untouched) while Solidity\r\n     * uses an invalid opcode to revert (consuming all remaining gas).\r\n     *\r\n     * Requirements:\r\n     *\r\n     * - The divisor cannot be zero.\r\n     */\r\n    function div(uint256 a, uint256 b, string memory errorMessage) internal pure returns (uint256) {\r\n        require(b > 0, errorMessage);\r\n        uint256 c = a / b;\r\n        // assert(a == b * c + a % b); // There is no case in which this doesn't hold\r\n\r\n        return c;\r\n    }\r\n\r\n    /**\r\n     * @dev Returns the remainder of dividing two unsigned integers. (unsigned integer modulo),\r\n     * Reverts when dividing by zero.\r\n     *\r\n     * Counterpart to Solidity's `%` operator. This function uses a `revert`\r\n     * opcode (which leaves remaining gas untouched) while Solidity uses an\r\n     * invalid opcode to revert (consuming all remaining gas).\r\n     *\r\n     * Requirements:\r\n     *\r\n     * - The divisor cannot be zero.\r\n     */\r\n    function mod(uint256 a, uint256 b) internal pure returns (uint256) {\r\n        return mod(a, b, \"SafeMath: modulo by zero\");\r\n    }\r\n\r\n    /**\r\n     * @dev Returns the remainder of dividing two unsigned integers. (unsigned integer modulo),\r\n     * Reverts with custom message when dividing by zero.\r\n     *\r\n     * Counterpart to Solidity's `%` operator. This function uses a `revert`\r\n     * opcode (which leaves remaining gas untouched) while Solidity uses an\r\n     * invalid opcode to revert (consuming all remaining gas).\r\n     *\r\n     * Requirements:\r\n     *\r\n     * - The divisor cannot be zero.\r\n     */\r\n    function mod(uint256 a, uint256 b, string memory errorMessage) internal pure returns (uint256) {\r\n        require(b != 0, errorMessage);\r\n        return a % b;\r\n    }\r\n\r\n  /**\r\n   * @dev gives square root of given x.\r\n   */\r\n  function sqrt(uint256 x)\r\n  internal\r\n  pure\r\n  returns(uint256 y) {\r\n    uint256 z = ((add(x, 1)) / 2);\r\n    y = x;\r\n    while (z < y) {\r\n      y = z;\r\n      z = ((add((x / z), z)) / 2);\r\n    }\r\n  }\r\n\r\n  /**\r\n   * @dev gives square. multiplies x by x\r\n   */\r\n  function sq(uint256 x)\r\n  internal\r\n  pure\r\n  returns(uint256) {\r\n    return (mul(x, x));\r\n  }\r\n\r\n  /**\r\n   * @dev x to the power of y \r\n   */\r\n  function pwr(uint256 x, uint256 y)\r\n  internal\r\n  pure\r\n  returns(uint256) {\r\n    if (x == 0)\r\n      return (0);\r\n    else if (y == 0)\r\n      return (1);\r\n    else {\r\n      uint256 z = x;\r\n      for (uint256 i = 1; i < y; i++)\r\n        z = mul(z, x);\r\n      return (z);\r\n    }\r\n  }\r\n}\r\n\r\n\r\ncontract MyTruesure {\r\n    using SafeMath for uint256;\r\n  \r\n    //\r\n    address public techAddr;  \r\n\r\n    //\r\n    uint public totalTruesure;\r\n\r\n    struct Owner{\r\n      // \r\n      address ownerAddr;\r\n      //\r\n      address[] successor;\r\n      uint ownerTreature;  //\r\n      uint startTime;   //\r\n      uint periodTime;   //\r\n      uint8 islive; //01\r\n\r\n    }\r\n\r\n    // mapping(uint256 => Owner) allTruesureMap;  //\r\n    Owner[] public allTruesures;\r\n\r\n    Owner  myOwner;\r\n\r\n    // map\r\n    // function getKeys() public view returns (uint256[] memory) {\r\n    //     uint256 count = 0;\r\n    //     for (uint256 key = 0; key < 2**256; key++) {\r\n    //         if (allTruesureMap[key].length != 0) {\r\n    //             count++;\r\n    //         }\r\n    //     }\r\n \r\n    //     uint256[] memory keys = new uint256[](count);\r\n    //     count = 0;\r\n    //     for (uint256 key = 0; key < 2**256; key++) {\r\n    //         if (allTruesureMap[key].length != 0) {\r\n    //             keys[count] = key;\r\n    //             count++;\r\n    //         }\r\n    //     }\r\n    //     return keys;\r\n    // }\r\n   \r\n   /**\r\n   * @dev \r\n   * @param _techAddr \r\n   */\r\n    constructor(address _techAddr)  {  //public\r\n        techAddr = _techAddr;\r\n    }\r\n\r\n    /**\r\n    * @dev \r\n    * @param _addr \r\n    * \r\n    */\r\n    function isContract(address _addr) private view returns(bool result) {\r\n        uint size;\r\n        assembly {\r\n        size := extcodesize(_addr)\r\n        }\r\n        result = size > 0;\r\n    }\r\n\r\n    // receive () external payable {   //ETH\r\n    //     uint _eth = msg.value;\r\n    //     bool flag = isContract(msg.sender);\r\n    //     // \r\n    //     if (!flag) {\r\n    //         // eth\r\n    //         if (_eth > 0) {\r\n    //             // \r\n\r\n    //             // scratchWithEthDistribution(msg.sender, address(0x0), _eth); //ETH\r\n    //         } else {//*0\r\n    //             // \r\n\r\n\r\n    //             // recallEthCore(msg.sender, 0);\r\n    //         }\r\n    //     }\r\n    // }\r\n\r\n  // payable\r\n    // fallback () payable external {}\r\n\r\n\r\n\r\n    //\r\n   /*\r\n   * @dev \r\n   * @param filmId ID\r\n   */\r\n\r\n\r\n     event Withdrawal(uint amount, uint when);\r\n\r\n    //event\r\n    function createSuccessActivity( address sucessorAddr,uint startTime,uint peroidTime) external payable {  //payablevalue\r\n      require(isContract(sucessorAddr) == false, \"Not a normal user\");\r\n      require(peroidTime >86400, \"peroidTime id much small,need bigger one day\");  //\r\n      require(msg.value>0, \"Eth balance is 0\");\r\n      // uint _eth = msg.value;  //tokenmsgmsg\r\n      payable(address(this)).transfer(msg.value); //\r\n\r\n      Owner storage owner=myOwner;\r\n      owner.ownerAddr=msg.sender;\r\n      owner.ownerTreature=msg.value;\r\n      owner.startTime=startTime;\r\n      owner.periodTime=peroidTime;\r\n      owner.islive=1;\r\n      // \r\n      owner.successor.push(sucessorAddr);\r\n\r\n      allTruesures.push(owner);\r\n    }\r\n\r\n\r\n    //\r\n    function checkAllSucessActivity() external {\r\n      for (uint i = 0; i < allTruesures.length; i++) {\r\n          if(allTruesures[i].islive==1){//\r\n            uint currentTime=block.timestamp;\r\n            uint diedTime=allTruesures[i].startTime + allTruesures[i].periodTime;\r\n            if(currentTime>=diedTime){  //\r\n              address  payable to=payable(allTruesures[i].successor[0]);\r\n              to.transfer(allTruesures[i].ownerTreature); //\r\n              // ButtToken(_tokenAddr).transfer(address(this), feeValue); //token\r\n              allTruesures[i].ownerTreature=0;\r\n              allTruesures[i].islive=0;\r\n\r\n            }\r\n          }\r\n        }\r\n    }\r\n\r\n    //\r\n    function withDrawBack() public {\r\n      address ownerAddr=msg.sender;\r\n      uint totalTreasure;\r\n      uint iswithDraw=0;\r\n      for (uint i = 0; i < allTruesures.length; i++) {\r\n          if(allTruesures[i].ownerAddr==ownerAddr){//\r\n            totalTreasure+=allTruesures[i].ownerTreature;\r\n            allTruesures[i].ownerTreature=0;\r\n            allTruesures[i].islive=0;\r\n            iswithDraw=1;\r\n          }\r\n        }\r\n      if(iswithDraw==1){\r\n        emit Withdrawal(totalTreasure ,block.timestamp);\r\n        address  payable to=payable(ownerAddr);\r\n        to.transfer(totalTreasure); //\r\n      }\r\n    }\r\n\r\n\r\n    //\r\n    function ownerDelay(uint peroidTime) public {\r\n      require(peroidTime >86400, \"peroidTime id much small,need bigger one day\");  //\r\n      address ownerAddr=msg.sender;\r\n      for (uint i = 0; i < allTruesures.length; i++) {\r\n          if((allTruesures[i].ownerAddr==ownerAddr)&&(allTruesures[i].islive==1)){//\r\n            allTruesures[i].startTime=block.timestamp;\r\n            allTruesures[i].periodTime=peroidTime;\r\n          }\r\n        }\r\n    }\r\n\r\n\r\n  // \r\n    function getBalance() public view returns (uint) {\r\n        return address(this).balance;\r\n    }\r\n\r\n\r\n\r\n    //\r\n\r\n\r\n\r\n\r\n\r\n}",
  "sourcePath": "/Users/lucifer/Downloads/web3_match_12/contracts/MyTruesure.sol",
  "compiler": {
    "name": "solc",
    "version": "0.8.21+commit.d9974bed.Emscripten.clang"
  },
  "schemaVersion": "3.4.16",
  "updatedAt": "2024-04-14T04:37:38.418Z",
  "devdoc": {
    "kind": "dev",
    "methods": {
      "constructor": {
        "details": "",
        "params": {
          "_techAddr": ""
        }
      }
    },
    "version": 1
  },
  "userdoc": {
    "kind": "user",
    "methods": {},
    "version": 1
  }
}