{
  "contractName": "MyTruesure",
  "abi": [
    {
      "inputs": [
        {
          "internalType": "uint256",
          "name": "_techAddr",
          "type": "uint256"
        }
      ],
      "stateMutability": "nonpayable",
      "type": "constructor"
    },
    {
      "anonymous": false,
      "inputs": [
        {
          "indexed": false,
          "internalType": "uint256",
          "name": "amount",
          "type": "uint256"
        },
        {
          "indexed": false,
          "internalType": "uint256",
          "name": "when",
          "type": "uint256"
        }
      ],
      "name": "Withdrawal",
      "type": "event"
    },
    {
      "inputs": [
        {
          "internalType": "uint256",
          "name": "",
          "type": "uint256"
        }
      ],
      "name": "allTruesures",
      "outputs": [
        {
          "internalType": "address",
          "name": "ownerAddr",
          "type": "address"
        },
        {
          "internalType": "uint256",
          "name": "ownerTreature",
          "type": "uint256"
        },
        {
          "internalType": "uint256",
          "name": "startTime",
          "type": "uint256"
        },
        {
          "internalType": "uint256",
          "name": "periodTime",
          "type": "uint256"
        },
        {
          "internalType": "uint8",
          "name": "islive",
          "type": "uint8"
        }
      ],
      "stateMutability": "view",
      "type": "function",
      "constant": true
    },
    {
      "inputs": [],
      "name": "totalTruesure",
      "outputs": [
        {
          "internalType": "uint256",
          "name": "",
          "type": "uint256"
        }
      ],
      "stateMutability": "view",
      "type": "function",
      "constant": true
    },
    {
      "inputs": [
        {
          "internalType": "address",
          "name": "sucessorAddr",
          "type": "address"
        },
        {
          "internalType": "uint256",
          "name": "startTime",
          "type": "uint256"
        },
        {
          "internalType": "uint256",
          "name": "peroidTime",
          "type": "uint256"
        }
      ],
      "name": "createSuccessActivity",
      "outputs": [],
      "stateMutability": "payable",
      "type": "function",
      "payable": true
    },
    {
      "inputs": [],
      "name": "checkAllSucessActivity",
      "outputs": [],
      "stateMutability": "nonpayable",
      "type": "function"
    },
    {
      "inputs": [],
      "name": "withDrawBack",
      "outputs": [],
      "stateMutability": "nonpayable",
      "type": "function"
    },
    {
      "inputs": [
        {
          "internalType": "uint256",
          "name": "peroidTime",
          "type": "uint256"
        }
      ],
      "name": "ownerDelay",
      "outputs": [],
      "stateMutability": "nonpayable",
      "type": "function"
    },
    {
      "inputs": [],
      "name": "getBalance",
      "outputs": [
        {
          "internalType": "uint256",
          "name": "",
          "type": "uint256"
        }
      ],
      "stateMutability": "view",
      "type": "function",
      "constant": true
    }
  ],
  "bytecode": "0x608060405234801561000f575f80fd5b50604051610fbd380380610fbd833981810160405281019061003191906100b4565b335f806101000a81548173ffffffffffffffffffffffffffffffffffffffff021916908373ffffffffffffffffffffffffffffffffffffffff16021790555080600181905550506100df565b5f80fd5b5f819050919050565b61009381610081565b811461009d575f80fd5b50565b5f815190506100ae8161008a565b92915050565b5f602082840312156100c9576100c861007d565b5b5f6100d6848285016100a0565b91505092915050565b610ed1806100ec5f395ff3fe60806040526004361061006f575f3560e01c80634992fe001161004d5780634992fe00146100f957806353954574146101235780635cd464ed14610139578063e3aae837146101615761006f565b806302e99b0d1461007357806312065fe0146100b3578063442ea197146100dd575b5f80fd5b34801561007e575f80fd5b5061009960048036038101906100949190610aba565b610177565b6040516100aa959493929190610b4e565b60405180910390f35b3480156100be575f80fd5b506100c76101e3565b6040516100d49190610b9f565b60405180910390f35b6100f760048036038101906100f29190610be2565b6101ea565b005b348015610104575f80fd5b5061010d6104d8565b60405161011a9190610b9f565b60405180910390f35b34801561012e575f80fd5b506101376104de565b005b348015610144575f80fd5b5061015f600480360381019061015a9190610aba565b6106a7565b005b34801561016c575f80fd5b5061017561081b565b005b60038181548110610186575f80fd5b905f5260205f2090600602015f91509050805f015f9054906101000a900473ffffffffffffffffffffffffffffffffffffffff1690806002015490806003015490806004015490806005015f9054906101000a900460ff16905085565b5f47905090565b5f15156101f684610a09565b151514610238576040517f08c379a000000000000000000000000000000000000000000000000000000000815260040161022f90610c8c565b60405180910390fd5b62015180811161027d576040517f08c379a000000000000000000000000000000000000000000000000000000000815260040161027490610d1a565b60405180910390fd5b5f34116102bf576040517f08c379a00000000000000000000000000000000000000000000000000000000081526004016102b690610d82565b60405180910390fd5b3073ffffffffffffffffffffffffffffffffffffffff166108fc3490811502906040515f60405180830381858888f19350505050158015610302573d5f803e3d5ffd5b505f6004905033815f015f6101000a81548173ffffffffffffffffffffffffffffffffffffffff021916908373ffffffffffffffffffffffffffffffffffffffff1602179055503481600201819055508281600301819055508181600401819055506001816005015f6101000a81548160ff021916908360ff1602179055508060010184908060018154018082558091505060019003905f5260205f20015f9091909190916101000a81548173ffffffffffffffffffffffffffffffffffffffff021916908373ffffffffffffffffffffffffffffffffffffffff160217905550600381908060018154018082558091505060019003905f5260205f2090600602015f909190919091505f82015f9054906101000a900473ffffffffffffffffffffffffffffffffffffffff16815f015f6101000a81548173ffffffffffffffffffffffffffffffffffffffff021916908373ffffffffffffffffffffffffffffffffffffffff1602179055506001820181600101908054610485929190610a1a565b50600282015481600201556003820154816003015560048201548160040155600582015f9054906101000a900460ff16816005015f6101000a81548160ff021916908360ff160217905550505050505050565b60025481565b5f3390505f805f90505f5b600380549050811015610616578373ffffffffffffffffffffffffffffffffffffffff166003828154811061052157610520610da0565b5b905f5260205f2090600602015f015f9054906101000a900473ffffffffffffffffffffffffffffffffffffffff1673ffffffffffffffffffffffffffffffffffffffff1603610603576003818154811061057e5761057d610da0565b5b905f5260205f20906006020160020154836105999190610dfa565b92505f600382815481106105b0576105af610da0565b5b905f5260205f209060060201600201819055505f600382815481106105d8576105d7610da0565b5b905f5260205f2090600602016005015f6101000a81548160ff021916908360ff160217905550600191505b808061060e90610e2d565b9150506104e9565b50600181036106a2577fbf2ed60bd5b5965d685680c01195c9514e4382e28e3a5a2d2d5244bf59411b938242604051610650929190610e74565b60405180910390a15f8390508073ffffffffffffffffffffffffffffffffffffffff166108fc8490811502906040515f60405180830381858888f1935050505015801561069f573d5f803e3d5ffd5b50505b505050565b6201518081116106ec576040517f08c379a00000000000000000000000000000000000000000000000000000000081526004016106e390610d1a565b60405180910390fd5b5f3390505f5b600380549050811015610816578173ffffffffffffffffffffffffffffffffffffffff166003828154811061072a57610729610da0565b5b905f5260205f2090600602015f015f9054906101000a900473ffffffffffffffffffffffffffffffffffffffff1673ffffffffffffffffffffffffffffffffffffffff161480156107ad575060016003828154811061078c5761078b610da0565b5b905f5260205f2090600602016005015f9054906101000a900460ff1660ff16145b156108035742600382815481106107c7576107c6610da0565b5b905f5260205f2090600602016003018190555082600382815481106107ef576107ee610da0565b5b905f5260205f209060060201600401819055505b808061080e90610e2d565b9150506106f2565b505050565b5f5b600380549050811015610a06576001600382815481106108405761083f610da0565b5b905f5260205f2090600602016005015f9054906101000a900460ff1660ff16036109f3575f4290505f6003838154811061087d5761087c610da0565b5b905f5260205f20906006020160040154600384815481106108a1576108a0610da0565b5b905f5260205f209060060201600301546108bb9190610dfa565b90508082106109f0575f600384815481106108d9576108d8610da0565b5b905f5260205f2090600602016001015f815481106108fa576108f9610da0565b5b905f5260205f20015f9054906101000a900473ffffffffffffffffffffffffffffffffffffffff1690508073ffffffffffffffffffffffffffffffffffffffff166108fc6003868154811061095257610951610da0565b5b905f5260205f2090600602016002015490811502906040515f60405180830381858888f1935050505015801561098a573d5f803e3d5ffd5b505f600385815481106109a05761099f610da0565b5b905f5260205f209060060201600201819055505f600385815481106109c8576109c7610da0565b5b905f5260205f2090600602016005015f6101000a81548160ff021916908360ff160217905550505b50505b80806109fe90610e2d565b91505061081d565b50565b5f80823b90505f8111915050919050565b828054828255905f5260205f20908101928215610a57575f5260205f209182015b82811115610a56578254825591600101919060010190610a3b565b5b509050610a649190610a68565b5090565b5b80821115610a7f575f815f905550600101610a69565b5090565b5f80fd5b5f819050919050565b610a9981610a87565b8114610aa3575f80fd5b50565b5f81359050610ab481610a90565b92915050565b5f60208284031215610acf57610ace610a83565b5b5f610adc84828501610aa6565b91505092915050565b5f73ffffffffffffffffffffffffffffffffffffffff82169050919050565b5f610b0e82610ae5565b9050919050565b610b1e81610b04565b82525050565b610b2d81610a87565b82525050565b5f60ff82169050919050565b610b4881610b33565b82525050565b5f60a082019050610b615f830188610b15565b610b6e6020830187610b24565b610b7b6040830186610b24565b610b886060830185610b24565b610b956080830184610b3f565b9695505050505050565b5f602082019050610bb25f830184610b24565b92915050565b610bc181610b04565b8114610bcb575f80fd5b50565b5f81359050610bdc81610bb8565b92915050565b5f805f60608486031215610bf957610bf8610a83565b5b5f610c0686828701610bce565b9350506020610c1786828701610aa6565b9250506040610c2886828701610aa6565b9150509250925092565b5f82825260208201905092915050565b7f4e6f742061206e6f726d616c20757365720000000000000000000000000000005f82015250565b5f610c76601183610c32565b9150610c8182610c42565b602082019050919050565b5f6020820190508181035f830152610ca381610c6a565b9050919050565b7f7065726f696454696d65206964206d75636820736d616c6c2c6e6565642062695f8201527f67676572206f6e65206461790000000000000000000000000000000000000000602082015250565b5f610d04602c83610c32565b9150610d0f82610caa565b604082019050919050565b5f6020820190508181035f830152610d3181610cf8565b9050919050565b7f4574682062616c616e63652069732030000000000000000000000000000000005f82015250565b5f610d6c601083610c32565b9150610d7782610d38565b602082019050919050565b5f6020820190508181035f830152610d9981610d60565b9050919050565b7f4e487b71000000000000000000000000000000000000000000000000000000005f52603260045260245ffd5b7f4e487b71000000000000000000000000000000000000000000000000000000005f52601160045260245ffd5b5f610e0482610a87565b9150610e0f83610a87565b9250828201905080821115610e2757610e26610dcd565b5b92915050565b5f610e3782610a87565b91507fffffffffffffffffffffffffffffffffffffffffffffffffffffffffffffffff8203610e6957610e68610dcd565b5b600182019050919050565b5f604082019050610e875f830185610b24565b610e946020830184610b24565b939250505056fea2646970667358221220a5028e837bac6ec8c55873d81acddd39244926f5fd5bd2b949f805fa09487f2664736f6c63430008150033",
  "immutableReferences": {},
  "source": "pragma solidity ^0.8.20;\r\nimport \"../node_modules/@openzeppelin/contracts/token/ERC20/ERC20.sol\"; \r\n// import \"openzeppelin-solidity/contracts/token/ERC20/utils/SafeERC20.sol\"; \r\n// import './ButtToken.sol';\r\n\r\nlibrary SafeMath {\r\n\r\n    /**\r\n     * @dev Returns the addition of two unsigned integers, reverting on\r\n     * overflow.\r\n     *\r\n     * Counterpart to Solidity's `+` operator.\r\n     *\r\n     * Requirements:\r\n     *\r\n     * - Addition cannot overflow.\r\n     */\r\n    function add(uint256 a, uint256 b) internal pure returns (uint256) {\r\n        uint256 c = a + b;\r\n        require(c >= a, \"SafeMath: addition overflow\");\r\n        return c;\r\n    }\r\n\r\n    \r\n\r\n    /**\r\n     * @dev Returns the subtraction of two unsigned integers, reverting on\r\n     * overflow (when the result is negative).\r\n     *\r\n     * Counterpart to Solidity's `-` operator.\r\n     *\r\n     * Requirements:\r\n     *\r\n     * - Subtraction cannot overflow.\r\n     */\r\n    function sub(uint256 a, uint256 b) internal pure returns (uint256) {\r\n        return sub(a, b, \"SafeMath: subtraction overflow\");\r\n    }\r\n\r\n    /**\r\n     * @dev Returns the subtraction of two unsigned integers, reverting with custom message on\r\n     * overflow (when the result is negative).\r\n     *\r\n     * Counterpart to Solidity's `-` operator.\r\n     *\r\n     * Requirements:\r\n     *\r\n     * - Subtraction cannot overflow.\r\n     */\r\n    function sub(uint256 a, uint256 b, string memory errorMessage) internal pure returns (uint256) {\r\n        require(b <= a, errorMessage);\r\n        uint256 c = a - b;\r\n\r\n        return c;\r\n    }\r\n\r\n    /**\r\n     * @dev Returns the multiplication of two unsigned integers, reverting on\r\n     * overflow.\r\n     *\r\n     * Counterpart to Solidity's `*` operator.\r\n     *\r\n     * Requirements:\r\n     *\r\n     * - Multiplication cannot overflow.\r\n     */\r\n    function mul(uint256 a, uint256 b) internal pure returns (uint256) {\r\n        // Gas optimization: this is cheaper than requiring 'a' not being zero, but the\r\n        // benefit is lost if 'b' is also tested.\r\n        // See: https://github.com/OpenZeppelin/openzeppelin-contracts/pull/522\r\n        if (a == 0) {\r\n            return 0;\r\n        }\r\n\r\n        uint256 c = a * b;\r\n        require(c / a == b, \"SafeMath: multiplication overflow\");\r\n\r\n        return c;\r\n    }\r\n\r\n    /**\r\n     * @dev Returns the integer division of two unsigned integers. Reverts on\r\n     * division by zero. The result is rounded towards zero.\r\n     *\r\n     * Counterpart to Solidity's `/` operator. Note: this function uses a\r\n     * `revert` opcode (which leaves remaining gas untouched) while Solidity\r\n     * uses an invalid opcode to revert (consuming all remaining gas).\r\n     *\r\n     * Requirements:\r\n     *\r\n     * - The divisor cannot be zero.\r\n     */\r\n    function div(uint256 a, uint256 b) internal pure returns (uint256) {\r\n        return div(a, b, \"SafeMath: division by zero\");\r\n    }\r\n\r\n    /**\r\n     * @dev Returns the integer division of two unsigned integers. Reverts with custom message on\r\n     * division by zero. The result is rounded towards zero.\r\n     *\r\n     * Counterpart to Solidity's `/` operator. Note: this function uses a\r\n     * `revert` opcode (which leaves remaining gas untouched) while Solidity\r\n     * uses an invalid opcode to revert (consuming all remaining gas).\r\n     *\r\n     * Requirements:\r\n     *\r\n     * - The divisor cannot be zero.\r\n     */\r\n    function div(uint256 a, uint256 b, string memory errorMessage) internal pure returns (uint256) {\r\n        require(b > 0, errorMessage);\r\n        uint256 c = a / b;\r\n        // assert(a == b * c + a % b); // There is no case in which this doesn't hold\r\n\r\n        return c;\r\n    }\r\n\r\n    /**\r\n     * @dev Returns the remainder of dividing two unsigned integers. (unsigned integer modulo),\r\n     * Reverts when dividing by zero.\r\n     *\r\n     * Counterpart to Solidity's `%` operator. This function uses a `revert`\r\n     * opcode (which leaves remaining gas untouched) while Solidity uses an\r\n     * invalid opcode to revert (consuming all remaining gas).\r\n     *\r\n     * Requirements:\r\n     *\r\n     * - The divisor cannot be zero.\r\n     */\r\n    function mod(uint256 a, uint256 b) internal pure returns (uint256) {\r\n        return mod(a, b, \"SafeMath: modulo by zero\");\r\n    }\r\n\r\n    /**\r\n     * @dev Returns the remainder of dividing two unsigned integers. (unsigned integer modulo),\r\n     * Reverts with custom message when dividing by zero.\r\n     *\r\n     * Counterpart to Solidity's `%` operator. This function uses a `revert`\r\n     * opcode (which leaves remaining gas untouched) while Solidity uses an\r\n     * invalid opcode to revert (consuming all remaining gas).\r\n     *\r\n     * Requirements:\r\n     *\r\n     * - The divisor cannot be zero.\r\n     */\r\n    function mod(uint256 a, uint256 b, string memory errorMessage) internal pure returns (uint256) {\r\n        require(b != 0, errorMessage);\r\n        return a % b;\r\n    }\r\n\r\n  /**\r\n   * @dev gives square root of given x.\r\n   */\r\n  function sqrt(uint256 x)\r\n  internal\r\n  pure\r\n  returns(uint256 y) {\r\n    uint256 z = ((add(x, 1)) / 2);\r\n    y = x;\r\n    while (z < y) {\r\n      y = z;\r\n      z = ((add((x / z), z)) / 2);\r\n    }\r\n  }\r\n\r\n  /**\r\n   * @dev gives square. multiplies x by x\r\n   */\r\n  function sq(uint256 x)\r\n  internal\r\n  pure\r\n  returns(uint256) {\r\n    return (mul(x, x));\r\n  }\r\n\r\n  /**\r\n   * @dev x to the power of y \r\n   */\r\n  function pwr(uint256 x, uint256 y)\r\n  internal\r\n  pure\r\n  returns(uint256) {\r\n    if (x == 0)\r\n      return (0);\r\n    else if (y == 0)\r\n      return (1);\r\n    else {\r\n      uint256 z = x;\r\n      for (uint256 i = 1; i < y; i++)\r\n        z = mul(z, x);\r\n      return (z);\r\n    }\r\n  }\r\n}\r\n\r\n\r\ncontract MyTruesure {\r\n    using SafeMath for uint256;\r\n  \r\n    //\r\n    address  techAddr;  \r\n    uint creater; \r\n\r\n    //\r\n    uint public totalTruesure;\r\n\r\n    struct Owner{\r\n      // \r\n      address ownerAddr;\r\n      //\r\n      address[] successor;\r\n      uint ownerTreature;  //\r\n      uint startTime;   //\r\n      uint periodTime;   //\r\n      uint8 islive; //01\r\n\r\n    }\r\n\r\n    // mapping(uint256 => Owner) allTruesureMap;  //\r\n    Owner[] public allTruesures;\r\n\r\n    Owner  myOwner;\r\n\r\n    // map\r\n    // function getKeys() public view returns (uint256[] memory) {\r\n    //     uint256 count = 0;\r\n    //     for (uint256 key = 0; key < 2**256; key++) {\r\n    //         if (allTruesureMap[key].length != 0) {\r\n    //             count++;\r\n    //         }\r\n    //     }\r\n \r\n    //     uint256[] memory keys = new uint256[](count);\r\n    //     count = 0;\r\n    //     for (uint256 key = 0; key < 2**256; key++) {\r\n    //         if (allTruesureMap[key].length != 0) {\r\n    //             keys[count] = key;\r\n    //             count++;\r\n    //         }\r\n    //     }\r\n    //     return keys;\r\n    // }\r\n   \r\n   /**\r\n   * @dev \r\n   * @param _techAddr \r\n   */\r\n    constructor( uint _techAddr)  {  \r\n        \r\n        techAddr=msg.sender;\r\n        creater = _techAddr;\r\n    }\r\n\r\n    /**\r\n    * @dev \r\n    * @param _addr \r\n    * \r\n    */\r\n    function isContract(address _addr) private view returns(bool result) {\r\n        uint size;\r\n        assembly {\r\n        size := extcodesize(_addr)\r\n        }\r\n        result = size > 0;\r\n    }\r\n\r\n    // receive () external payable {   //ETH\r\n    //     uint _eth = msg.value;\r\n    //     bool flag = isContract(msg.sender);\r\n    //     // \r\n    //     if (!flag) {\r\n    //         // eth\r\n    //         if (_eth > 0) {\r\n    //             // \r\n\r\n    //             // scratchWithEthDistribution(msg.sender, address(0x0), _eth); //ETH\r\n    //         } else {//*0\r\n    //             // \r\n\r\n\r\n    //             // recallEthCore(msg.sender, 0);\r\n    //         }\r\n    //     }\r\n    // }\r\n\r\n  // payable\r\n    // fallback () payable external {}\r\n\r\n\r\n\r\n    //\r\n   /*\r\n   * @dev \r\n   * @param filmId ID\r\n   */\r\n\r\n\r\n     event Withdrawal(uint amount, uint when);\r\n\r\n    //event\r\n    function createSuccessActivity( address sucessorAddr,uint startTime,uint peroidTime) external payable {  //payablevalue\r\n      require(isContract(sucessorAddr) == false, \"Not a normal user\");\r\n      require(peroidTime >86400, \"peroidTime id much small,need bigger one day\");  //\r\n      require(msg.value>0, \"Eth balance is 0\");\r\n      // uint _eth = msg.value;  //tokenmsgmsg\r\n      payable(address(this)).transfer(msg.value); //\r\n\r\n      Owner storage owner=myOwner;\r\n      owner.ownerAddr=msg.sender;\r\n      owner.ownerTreature=msg.value;\r\n      owner.startTime=startTime;\r\n      owner.periodTime=peroidTime;\r\n      owner.islive=1;\r\n      // \r\n      owner.successor.push(sucessorAddr);\r\n\r\n      allTruesures.push(owner);\r\n    }\r\n\r\n\r\n    //\r\n    function checkAllSucessActivity() external {\r\n      for (uint i = 0; i < allTruesures.length; i++) {\r\n          if(allTruesures[i].islive==1){//\r\n            uint currentTime=block.timestamp;\r\n            uint diedTime=allTruesures[i].startTime + allTruesures[i].periodTime;\r\n            if(currentTime>=diedTime){  //\r\n              address  payable to=payable(allTruesures[i].successor[0]);\r\n              to.transfer(allTruesures[i].ownerTreature); //\r\n              // ButtToken(_tokenAddr).transfer(address(this), feeValue); //token\r\n              allTruesures[i].ownerTreature=0;\r\n              allTruesures[i].islive=0;\r\n\r\n            }\r\n          }\r\n        }\r\n    }\r\n\r\n    //\r\n    function withDrawBack() public {\r\n      address ownerAddr=msg.sender;\r\n      uint totalTreasure;\r\n      uint iswithDraw=0;\r\n      for (uint i = 0; i < allTruesures.length; i++) {\r\n          if(allTruesures[i].ownerAddr==ownerAddr){//\r\n            totalTreasure+=allTruesures[i].ownerTreature;\r\n            allTruesures[i].ownerTreature=0;\r\n            allTruesures[i].islive=0;\r\n            iswithDraw=1;\r\n          }\r\n        }\r\n      if(iswithDraw==1){\r\n        emit Withdrawal(totalTreasure ,block.timestamp);\r\n        address  payable to=payable(ownerAddr);\r\n        to.transfer(totalTreasure); //\r\n      }\r\n    }\r\n\r\n\r\n    //\r\n    function ownerDelay(uint peroidTime) public {\r\n      require(peroidTime >86400, \"peroidTime id much small,need bigger one day\");  //\r\n      address ownerAddr=msg.sender;\r\n      for (uint i = 0; i < allTruesures.length; i++) {\r\n          if((allTruesures[i].ownerAddr==ownerAddr)&&(allTruesures[i].islive==1)){//\r\n            allTruesures[i].startTime=block.timestamp;\r\n            allTruesures[i].periodTime=peroidTime;\r\n          }\r\n        }\r\n    }\r\n\r\n\r\n  // \r\n    function getBalance() public view returns (uint) {\r\n        return address(this).balance;\r\n    }\r\n\r\n\r\n\r\n    //\r\n\r\n\r\n\r\n\r\n\r\n}",
  "sourcePath": "/Users/lucifer/www/hacker/2024-Solidity-Hackathon-Shanghai/Projects/Fortune/solidity/contracts/MyTruesure.sol",
  "compiler": {
    "name": "solc",
    "version": "0.8.21+commit.d9974bed.Emscripten.clang"
  },
  "schemaVersion": "3.4.16",
  "updatedAt": "2024-04-14T05:43:08.656Z",
  "networkType": "ethereum",
  "devdoc": {
    "kind": "dev",
    "methods": {
      "constructor": {
        "details": "",
        "params": {
          "_techAddr": ""
        }
      }
    },
    "version": 1
  },
  "userdoc": {
    "kind": "user",
    "methods": {},
    "version": 1
  }
}